:100000000C9462000C9486030C945F030C948A0099
:100010000C948A000C948A000C948A000C948A0038
:100020000C948A000C948A000C948A000C940E059F
:100030000C948A000C948A000C948A000C948A0018
:100040000C9415030C948A000C945B040C943504F6
:100050000C948A000C948A000C948A000C948A00F8
:100060000C948A000C948A000000000024002700F1
:100070002A0000000000250028002B0000000000DE
:1000800023002600290004040404040404040202DA
:100090000202020203030303030301020408102007
:1000A0004080010204081020010204081020000012
:1000B0000008000201000003040700000000000027
:1000C0000000590611241FBECFEFD8E0DEBFCDBF20
:1000D00011E0A0E0B1E0E0E6FDE002C005900D9285
:1000E000A631B107D9F721E0A6E1B1E001C01D9228
:1000F000A33CB207E1F710E0C2E6D0E004C02197CC
:10010000FE010E94A806C136D107C9F70E94070662
:100110000C94AE060C940000833081F028F48130FA
:1001200099F08230A9F008958730A9F08830C9F09D
:100130008430B1F4809180008F7D03C08091800075
:100140008F7780938000089584B58F7784BD08955C
:1001500084B58F7DFBCF8091B0008F778093B00006
:1001600008958091B0008F7DF9CF0895AF92BF922E
:10017000CF92DF92EF92FF920F931F93CF93DF9373
:100180006C017B018B01040F151FEB015E01AE18A2
:10019000BF08C017D10759F06991D601ED91FC91C4
:1001A0000190F081E02DC6010995892B79F7C501F1
:1001B000DF91CF911F910F91FF90EF90DF90CF9043
:1001C000BF90AF900895FC01538D448D252F30E0F2
:1001D000842F90E0821B930B541710F0CF96089554
:1001E00001970895FC01918D828D981761F0A28D81
:1001F000AE0FBF2FB11D5D968C91928D9F5F9F7347
:10020000928F90E008958FEF9FEF0895FC01918DFC
:10021000828D981731F0828DE80FF11D858D90E069
:1002200008958FEF9FEF0895FC01918D228D892F06
:1002300090E0805C9F4F821B91098F7399270895EE
:1002400086E191E00E94140121E0892B09F420E06D
:10025000822F089580E090E0892B29F00E942001F0
:1002600081110C9400000895FC01A48DA80FB92FF2
:10027000B11DA35ABF4F2C91848D90E001968F73CE
:100280009927848FA689B7892C93A089B1898C91ED
:10029000837080648C93938D848D981306C002883C
:1002A000F389E02D80818F7D80830895EF92FF9206
:1002B0000F931F93CF93DF93EC0181E0888F9B8D89
:1002C0008C8D98131AC0E889F989808185FF15C043
:1002D0009FB7F894EE89FF896083E889F989808166
:1002E0008370806480839FBF81E090E0DF91CF9135
:1002F0001F910F91FF90EF900895F62E0B8D10E057
:100300000F5F1F4F0F731127E02E8C8D8E110CC0C5
:100310000FB607FCFACFE889F989808185FFF5CF10
:10032000CE010E943401F1CFEB8DEC0FFD2FF11DBA
:10033000E35AFF4FF0829FB7F8940B8FEA89FB894D
:1003400080818062CFCFCF93DF93EC01888D8823AB
:10035000B9F0AA89BB89E889F9898C9185FD03C028
:10036000808186FD0DC00FB607FCF7CF8C9185FF0D
:10037000F2CF808185FFEDCFCE010E943401E9CF1D
:10038000DF91CF910895FB0101900020E9F73197AB
:10039000AF01461B570BDC01ED91FC910280F3810C
:1003A000E02D09948F929F92AF92BF92EF92FF92AD
:1003B0000F931F93CF93DF93CDB7DEB7A1970FB6FF
:1003C000F894DEBF0FBECDBF7C01FA01CB0119A2AC
:1003D000223008F42AE08E010F5D1F4F822E912CEF
:1003E000B12CA12CBF01A50194010E948606F90140
:1003F000CA016A300CF5605DD8016E938D01232B24
:10040000242B252B79F790E080E0109721F0BD0197
:10041000C7010E94C301A1960FB6F894DEBF0FBEBC
:10042000CDBFDF91CF911F910F91FF90EF90BF90C3
:10043000AF909F908F900895695CDECFCF93DF934C
:10044000282F30E0F901E255FF4F8491F901E6567B
:10045000FF4FD491F901EA57FF4FC491CC23A1F08B
:1004600081110E948C00EC2FF0E0EE0FFF1FE4588A
:10047000FF4FA591B491EC91ED2381E090E009F458
:1004800080E0DF91CF91089580E090E0FACF1F9354
:10049000CF93DF93282F30E0F901E255FF4F84918D
:1004A000F901E656FF4FD491F901EA57FF4FC49185
:1004B000CC23A9F0162F81110E948C00EC2FF0E0C4
:1004C000EE0FFF1FEE58FF4FA591B4918FB7F89430
:1004D000EC91111108C0D095DE23DC938FBFDF9122
:1004E000CF911F910895DE2BF8CFCF93DF9390E04B
:1004F000FC01E656FF4F24918A579F4FFC018491DF
:100500008823C9F090E0880F991FFC01E859FF4F3C
:10051000A591B491FC01EE58FF4FC591D4916111A2
:100520000DC09FB7F8948C91209582238C9388817D
:10053000282328839FBFDF91CF910895623051F423
:100540009FB7F8943C91822F809583238C93E88108
:100550002E2BEFCF8FB7F894EC912E2B2C938FBFCF
:10056000EACF3FB7F8948091B8019091B901A0917A
:10057000BA01B091BB0126B5A89B05C02F3F19F069
:100580000196A11DB11D3FBFBA2FA92F982F882713
:10059000BC01CD01620F711D811D911D42E0660FEE
:1005A000771F881F991F4A95D1F708958F929F92C0
:1005B000AF92BF92CF92DF92EF92FF926B017C01DC
:1005C0000E94B1024B015C01C114D104E104F104A9
:1005D000B9F00E94B102681979098A099B09683E3D
:1005E00073408105910580F321E0C21AD108E1082A
:1005F000F10888EE880E83E0981EA11CB11CE4CFA0
:10060000FF90EF90DF90CF90BF90AF909F908F9032
:1006100008952FB7F8946091B4017091B50180915D
:10062000B6019091B7012FBF08951F920F920FB698
:100630000F9211242F933F938F939F93AF93BF9368
:100640008091B4019091B501A091B601B091B7012C
:100650003091B30123E0230F2D3758F50196A11DEA
:10066000B11D2093B3018093B4019093B501A09381
:10067000B601B093B7018091B8019091B901A091F2
:10068000BA01B091BB010196A11DB11D8093B801C3
:100690009093B901A093BA01B093BB01BF91AF9100
:1006A0009F918F913F912F910F900FBE0F901F90B0
:1006B000189526E8230F0296A11DB11DD2CF1F92D7
:1006C0000F920FB60F9211242F933F934F935F9386
:1006D0006F937F938F939F93AF93BF93EF93FF930A
:1006E000E0910201F09103010995FF91EF91BF9113
:1006F000AF919F918F917F916F915F914F913F91BA
:100700002F910F900FBE0F901F9018951F920F9270
:100710000FB60F9211242F933F934F935F936F93D4
:100720007F938F939F93AF93BF93EF93FF93E0914A
:100730000001F09101010995FF91EF91BF91AF91F7
:100740009F918F917F916F915F914F913F912F91E9
:100750000F900FBE0F901F9018958230E8F4E82F8D
:10076000F0E0EE0FFF1FE050FF4F71836083813098
:1007700041F0809169008C7F482B40936900E89A92
:10078000089580916900837F440F551F440F551FC2
:10079000482B40936900E99A0895CF92DF92EF9237
:1007A000FF920F931F93CF93DF934115510579F477
:1007B000DC01ED91FC910190F081E02DDF91CF9172
:1007C0001F910F91FF90EF90DF90CF9009946B01F4
:1007D000770FEE08FF084A30510511F52AE0F7FEC1
:1007E00020C0EC01E881F9810190F081E02D6DE2FB
:1007F00009958C0144275527BA014C195D096E09EA
:100800007F092AE0CE010E94D201800F911FDF9163
:10081000CF911F910F91FF90EF90DF90CF900895AF
:10082000242FB701A601DF91CF911F910F91FF9067
:10083000EF90DF90CF900C94D2019A01452B39F4C0
:10084000DC01ED91FC910190F081E02D0994462F9F
:1008500050E070E060E00C94D2016115710511F078
:100860000C94C30190E080E008951F920F920FB6A0
:100870000F9211242F933F934F935F936F937F9326
:100880008F939F93AF93BF93EF93FF9386E191E094
:100890000E943401FF91EF91BF91AF919F918F9191
:1008A0007F916F915F914F913F912F910F900FBE6C
:1008B0000F901F9018951F920F920FB60F92112450
:1008C0002F938F939F93EF93FF93E0912601F091E5
:1008D00027018081E0912C01F0912D0182FD1BC048
:1008E000908180912F018F5F8F732091300182174B
:1008F00041F0E0912F01F0E0EA5EFE4F958F80938A
:100900002F01FF91EF919F918F912F910F900FBE2B
:100910000F901F9018958081F4CFCF92DF92EF92C5
:10092000FF921F93CF93DF93EC016A017B01122F9B
:10093000E889F98982E08083C11481EED806E10458
:10094000F104A1F060E079E08DE390E0A701960169
:100950000E94860621503109410951095695479553
:1009600037952795211580E1380798F0E889F989AE
:10097000108260E874E88EE190E0A70196010E9481
:1009800086062150310941095109569547953795F9
:100990002795EC85FD853083EE85FF852083188EB5
:1009A000EC89FD891083EA89FB89808180618083DD
:1009B000EA89FB89808188608083EA89FB8980815C
:1009C00080688083EA89FB8980818F7D8083DF91C5
:1009D000CF911F91FF90EF90DF90CF900895CF932C
:1009E000DF9300D000D0CDB7DEB79A8389837C83B4
:1009F0006B8389819A81FC0180819181FC01208136
:100A000031814B8189819A81642FF90109950F9079
:100A10000F900F900F90DF91CF9108951F920F923A
:100A20000FB60F9211242F933F934F935F936F93C1
:100A30007F938F939F93AF93BF93EF93FF93CF9346
:100A4000DF93CDB7DEB72897DEBFCDBF8091C10160
:100A5000982F8091BF01292F281B822F8F8380918F
:100A6000C201982F8091C001E92FE81B8E2F888743
:100A70008091BF018093C1018091C0018093C20128
:100A80001A82198289819A8103978CF489819A81CB
:100A900084549E4FFC018081682F86E191E00E9482
:100AA000560189819A8101969A838983EBCF1C82B2
:100AB0001B828B819C810897ECF48F81082E000C9F
:100AC000990B0B8002C0959587950A94E2F7817087
:100AD000992721E0892B09F420E0822F90E0BC01C6
:100AE00086E191E00E94EF048B819C8101969C83BA
:100AF0008B83DFCF1E821D828D819E810897ECF44F
:100B00008885082E000C990B0D8002C0959587955D
:100B10000A94E2F78170992721E0892B09F420E0FB
:100B2000822F90E0BC0186E191E00E94EF048D816C
:100B30009E8101969E838D83DFCF6AE070E086E11F
:100B400091E00E94EF04000028960FB6F894DEBFF3
:100B50000FBECDBFDF91CF91FF91EF91BF91AF91CC
:100B60009F918F917F916F915F914F913F912F91C5
:100B70000F900FBE0F901F901895CF93DF9300D06A
:100B800000D000D0CDB7DEB79A8389834B835C83D6
:100B90006D837E838B819C81AD81BE81E981FA81E9
:100BA00026E0AC01BD01CF010E948D040000269615
:100BB0000FB6F894DEBF0FBECDBFDF91CF91089581
:100BC000CF93DF93CDB7DEB788E290E02FEFFC0143
:100BD000208387E290E0FC01108268EC70E080E006
:100BE00090E00E94D60240E052EC61E070E086E1C5
:100BF00091E00E94BD050000DF91CF910895CF9351
:100C0000DF93CDB7DEB70000DF91CF9108957894E0
:100C100084B5826084BD84B5816084BD85B5826001
:100C200085BD85B5816085BD80916E0081608093B2
:100C30006E0010928100809181008260809381001B
:100C4000809181008160809381008091800081602B
:100C5000809380008091B10084608093B100809186
:100C6000B00081608093B00080917A0084608093AE
:100C70007A0080917A00826080937A0080917A0075
:100C8000816080937A0080917A00806880937A00F6
:100C90001092C1000E94E005C0E0D0E00E94FF0574
:100CA0002097E1F30E9420018823C1F30E940000F5
:100CB000F5CFE6E1F1E01382128288EE93E0A0E046
:100CC000B0E084839583A683B78388E091E0918325
:100CD000808385EC90E09587848784EC90E097870B
:100CE000868780EC90E0918B808B81EC90E0938BF9
:100CF000828B82EC90E0958B848B86EC90E0978BD6
:100D0000868B118E128E138E148E0895A1E21A2EE8
:100D1000AA1BBB1BFD010DC0AA1FBB1FEE1FFF1F9F
:100D2000A217B307E407F50720F0A21BB30BE40BEF
:100D3000F50B661F771F881F991F1A9469F7609536
:100D40007095809590959B01AC01BD01CF010895F0
:100D5000EE0FFF1F0590F491E02D0994F894FFCF5A
:100D6000B500B500000000005601B600E300A30185
:060D70001401F20006016F
:107E0000112484B714BE81FFF0D085E080938100F7
:107E100082E08093C00088E18093C10086E0809377
:107E2000C20080E18093C4008EE0C9D0259A86E02C
:107E300020E33CEF91E0309385002093840096BBD3
:107E4000B09BFECF1D9AA8958150A9F7CC24DD24C4
:107E500088248394B5E0AB2EA1E19A2EF3E0BF2EE7
:107E6000A2D0813461F49FD0082FAFD0023811F036
:107E7000013811F484E001C083E08DD089C08234E0
:107E800011F484E103C0853419F485E0A6D080C0E4
:107E9000853579F488D0E82EFF2485D0082F10E0AE
:107EA000102F00270E291F29000F111F8ED06801E7
:107EB0006FC0863521F484E090D080E0DECF843638
:107EC00009F040C070D06FD0082F6DD080E0C81688
:107ED00080E7D80618F4F601B7BEE895C0E0D1E017
:107EE00062D089930C17E1F7F0E0CF16F0E7DF06D8
:107EF00018F0F601B7BEE89568D007B600FCFDCFD4
:107F0000A601A0E0B1E02C9130E011968C91119780
:107F100090E0982F8827822B932B1296FA010C0160
:107F200087BEE89511244E5F5F4FF1E0A038BF0790
:107F300051F7F601A7BEE89507B600FCFDCF97BE46
:107F4000E89526C08437B1F42ED02DD0F82E2BD052
:107F50003CD0F601EF2C8F010F5F1F4F84911BD097
:107F6000EA94F801C1F70894C11CD11CFA94CF0C13
:107F7000D11C0EC0853739F428D08EE10CD085E9AC
:107F80000AD08FE07ACF813511F488E018D01DD067
:107F900080E101D065CF982F8091C00085FFFCCF94
:107FA0009093C60008958091C00087FFFCCF809118
:107FB000C00084FD01C0A8958091C6000895E0E648
:107FC000F0E098E1908380830895EDDF803219F02E
:107FD00088E0F5DFFFCF84E1DECF1F93182FE3DFCA
:107FE0001150E9F7F2DF1F91089580E0E8DFEE27F6
:047FF000FF270994CA
:027FFE00040479
:0400000300007E007B
:00000001FF
