:100000000C9453000C947B000C947B000C947B00AC
:100010000C947B000C947B000C947B000C947B0074
:100020000C947B000C947B000C947B000C947B0064
:100030000C947B000C947B000C947B000C947B0054
:100040000C94B5020C947B000C9483020C945D021A
:100050000C947B000C947B000C947B000C947B0034
:100060000C947B000C947B0000000000250028000D
:100070002B0000000000240027002A0004040404D0
:100080000404040402020202020203030303030342
:10009000010204081020408001020408102001021F
:1000A00004081020150411241FBECFEFD8E0DEBFD6
:1000B000CDBF11E0A0E0B1E0E8EDF8E002C00590AE
:1000C0000D92A831B107D9F721E0A8E1B1E001C054
:1000D0001D92AE3BB207E1F710E0C3E5D0E004C0EB
:1000E0002197FE010E946404C235D107C9F70E941E
:1000F000FF020C946A040C940000AF92BF92CF925E
:10010000DF92EF92FF920F931F93CF93DF936C01D7
:100110007B018B01040F151FEB015E01AE18BF08B8
:10012000C017D10759F06991D601ED91FC9101906A
:10013000F081E02DC6010995892B79F7C501DF9182
:10014000CF911F910F91FF90EF90DF90CF90BF90D4
:10015000AF900895FC01538D448D252F30E0842FFE
:1001600090E0821B930B541710F0CF9608950197DF
:100170000895FC01918D828D981761F0A28DAE0FCC
:10018000BF2FB11D5D968C91928D9F5F9F73928F53
:1001900090E008958FEF9FEF0895FC01918D828D7F
:1001A000981731F0828DE80FF11D858D90E008954C
:1001B0008FEF9FEF0895FC01918D228D892F90E0A4
:1001C000805C9F4F821B91098F739927089581E26C
:1001D00091E00E94DB0021E0892B09F420E0822FCE
:1001E000089580E090E0892B29F00E94E7008111BA
:1001F0000C9400000895FC01A48DA80FB92FB11D27
:10020000A35ABF4F2C91848D90E001968F7399274C
:10021000848FA689B7892C93A089B1898C9183702A
:1002200080648C93938D848D981306C00288F38923
:10023000E02D80818F7D80830895EF92FF920F9350
:100240001F93CF93DF93EC0181E0888F9B8D8C8D82
:1002500098131AC0E889F989808185FF15C09FB776
:10026000F894EE89FF896083E889F9898081837039
:10027000806480839FBF81E090E0DF91CF911F91E8
:100280000F91FF90EF900895F62E0B8D10E00F5F09
:100290001F4F0F731127E02E8C8D8E110CC00FB6DF
:1002A00007FCFACFE889F989808185FFF5CFCE0177
:1002B0000E94FB00F1CFEB8DEC0FFD2FF11DE35AF7
:1002C000FF4FF0829FB7F8940B8FEA89FB898081FA
:1002D0008062CFCFCF93DF93EC01888D8823B9F074
:1002E000AA89BB89E889F9898C9185FD03C0808141
:1002F00086FD0DC00FB607FCF7CF8C9185FFF2CFBE
:10030000808185FFEDCFCE010E94FB00E9CFDF9118
:10031000CF910895CF93DF9390E0FC01E057FF4F1A
:10032000249184589F4FFC0184918823C9F090E068
:10033000880F991FFC01EE58FF4FA591B491FC0165
:10034000E859FF4FC591D49161110DC09FB7F89442
:100350008C91209582238C938881282328839FBFAA
:10036000DF91CF910895623051F49FB7F8943C919A
:10037000822F809583238C93E8812E2BEFCF8FB72C
:10038000F894EC912E2B2C938FBFEACF3FB7F894C3
:1003900080911D0190911E01A0911F01B09120013B
:1003A00026B5A89B05C02F3F19F00196A11DB11DD0
:1003B0003FBFBA2FA92F982F8827BC01CD01620F0C
:1003C000711D811D911D42E0660F771F881F991FC7
:1003D0004A95D1F70895FC0101900020E9F7319783
:1003E000AF01481B590BBC0181E291E00C947D00E8
:1003F0008F929F92AF92BF920F931F93CF93DF93F1
:10040000CDB7DEB7A1970FB6F894DEBF0FBECDBF54
:1004100019A2423008F44AE08E010F5D1F4F842E6E
:10042000912CB12CA12CA50194010E944204E62F2D
:10043000B901CA01EA30F4F4E05DD801EE938D0110
:10044000232B242B252B79F790E080E0109719F0CF
:10045000CD010E94EB01A1960FB6F894DEBF0FBE4E
:10046000CDBFDF91CF911F910F91BF90AF909F9023
:100470008F900895E95CE1CFCF92DF92EF92FF92E7
:10048000CF93DF936B017C016DE281E291E00E94EA
:100490001D01EC0166277727CB016C197D098E09B8
:1004A0009F094AE00E94F8018C0F9D1FDF91CF91B8
:1004B000FF90EF90DF90CF9008951F920F920FB6AC
:1004C0000F9211242F933F934F935F936F937F93DA
:1004D0008F939F93AF93BF93EF93FF9381E291E04C
:1004E0000E94FB00FF91EF91BF91AF919F918F917F
:1004F0007F916F915F914F913F912F910F900FBE20
:100500000F901F9018951F920F920FB60F92112403
:100510002F938F939F93EF93FF93E0913101F0918D
:1005200032018081E0913701F091380182FD1BC0DA
:10053000908180913A018F5F8F7320913B018217E8
:1005400041F0E0913A01F0E0EF5DFE4F958F80932E
:100550003A01FF91EF919F918F912F910F900FBED4
:100560000F901F9018958081F4CF1F920F920FB6B5
:100570000F9211242F933F938F939F93AF93BF9329
:100580008091190190911A01A0911B01B0911C0159
:100590003091180123E0230F2D3758F50196A11D46
:1005A000B11D209318018093190190931A01A09313
:1005B0001B01B0931C0180911D0190911E01A0911F
:1005C0001F01B09120010196A11DB11D80931D0155
:1005D00090931E01A0931F01B0932001BF91AF9192
:1005E0009F918F913F912F910F900FBE0F901F9071
:1005F000189526E8230F0296A11DB11DD2CF78943D
:1006000084B5826084BD84B5816084BD85B5826017
:1006100085BD85B5816085BD80916E0081608093C8
:100620006E00109281008091810082608093810031
:100630008091810081608093810080918000816041
:10064000809380008091B10084608093B10080919C
:10065000B00081608093B00080917A0084608093C4
:100660007A0080917A00826080937A0080917A008B
:10067000816080937A0080917A00806880937A000C
:100680001092C100C2E062E08C2F0E948A01CF5F0D
:10069000CD30C9F7CFE062E08C2F0E948A01CF5F96
:1006A000C431C9F760E08EE00E948A01E091310117
:1006B000F091320182E08083E0912D01F0912E01D2
:1006C0001082E0912F01F091300180E1808310923F
:1006D0003901E0913501F091360186E08083E091A7
:1006E0003301F0913401808180618083E091330196
:1006F000F0913401808188608083E0913301F09132
:100700003401808180688083E0913301F09134016D
:1007100080818F7D808360E08CE00E948A011C993B
:10072000FECF1C9BFECF61E08CE00E948A012C98DA
:10073000F12CD0E0C0E000E411E04D99FECF4D9BDC
:10074000FECF2C9A0E94C6014B015C010E94C6019B
:10075000681979098A099B09683E734081059105EA
:10076000A8F32C98CE019770811524E092070CF025
:1007700059C09C0100937C0040917A0040644093F2
:100780007A0040917A0046FDFCCF5091780040916C
:100790007900452754274527453F51400CF03460E8
:1007A0008227932792FF1EC078944AE060E070E0B1
:1007B000CB010E94F80182E191E00E94EB0166B159
:1007C00070E060957095759567956F7170E090E039
:1007D00080E04AE00E94F80184E191E00E94EB0190
:1007E000FF24F394219678946F2D612770E090E0B8
:1007F00080E04AE00E94F80182E191E00E94EB0172
:1008000066B170E060957095759567956F7170E051
:1008100090E080E04AE00E94F80184E191E00E94CB
:10082000EB018BCF9C013450A5CFE1E2F1E01382C4
:10083000128288EE93E0A0E0B0E084839583A683E3
:10084000B78384E091E09183808385EC90E0958785
:10085000848784EC90E09787868780EC90E0918B8A
:10086000808B81EC90E0938B828B82EC90E0958B77
:10087000848B86EC90E0978B868B118E128E138E74
:10088000148E0895A1E21A2EAA1BBB1BFD010DC0F8
:10089000AA1FBB1FEE1FFF1FA217B307E407F50730
:1008A00020F0A21BB30BE40BF50B661F771F881F0C
:1008B000991F1A9469F760957095809590959B01A2
:1008C000AC01BD01CF010895EE0FFF1F0590F4911B
:0808D000E02D0994F894FFCF1C
:1008D800000000001D017D00AA006A01DB00B900CC
:0808E800CD002C000D0A0000F8
:00000001FF
